{
  "_format": "hh-sol-artifact-1",
  "contractName": "Mixtral8x7BModelMarket",
  "sourceName": "contracts/LLMMarket.sol",
  "abi": [
    {
      "inputs": [
        {
          "internalType": "address",
          "name": "proofOfStakeContract",
          "type": "address"
        },
        {
          "internalType": "address",
          "name": "paymentTokenAddress",
          "type": "address"
        }
      ],
      "stateMutability": "nonpayable",
      "type": "constructor"
    },
    {
      "inputs": [],
      "name": "ECDSAInvalidSignature",
      "type": "error"
    },
    {
      "inputs": [
        {
          "internalType": "uint256",
          "name": "length",
          "type": "uint256"
        }
      ],
      "name": "ECDSAInvalidSignatureLength",
      "type": "error"
    },
    {
      "inputs": [
        {
          "internalType": "bytes32",
          "name": "s",
          "type": "bytes32"
        }
      ],
      "name": "ECDSAInvalidSignatureS",
      "type": "error"
    },
    {
      "inputs": [
        {
          "internalType": "address",
          "name": "account",
          "type": "address"
        }
      ],
      "name": "Unauthorized",
      "type": "error"
    },
    {
      "inputs": [
        {
          "internalType": "string",
          "name": "url",
          "type": "string"
        },
        {
          "internalType": "address",
          "name": "account",
          "type": "address"
        },
        {
          "internalType": "uint256",
          "name": "price",
          "type": "uint256"
        }
      ],
      "name": "addHost",
      "outputs": [
        {
          "internalType": "bool",
          "name": "",
          "type": "bool"
        }
      ],
      "stateMutability": "nonpayable",
      "type": "function"
    },
    {
      "inputs": [
        {
          "internalType": "string",
          "name": "uuid",
          "type": "string"
        },
        {
          "internalType": "address",
          "name": "host",
          "type": "address"
        },
        {
          "internalType": "uint256",
          "name": "value",
          "type": "uint256"
        }
      ],
      "name": "addRequest",
      "outputs": [
        {
          "internalType": "bool",
          "name": "",
          "type": "bool"
        }
      ],
      "stateMutability": "nonpayable",
      "type": "function"
    },
    {
      "inputs": [
        {
          "internalType": "uint256",
          "name": "",
          "type": "uint256"
        }
      ],
      "name": "allHosts",
      "outputs": [
        {
          "internalType": "string",
          "name": "url",
          "type": "string"
        },
        {
          "internalType": "address",
          "name": "hostAccount",
          "type": "address"
        },
        {
          "internalType": "uint256",
          "name": "price",
          "type": "uint256"
        }
      ],
      "stateMutability": "view",
      "type": "function"
    },
    {
      "inputs": [
        {
          "internalType": "address",
          "name": "client",
          "type": "address"
        }
      ],
      "name": "balances",
      "outputs": [
        {
          "internalType": "uint256",
          "name": "",
          "type": "uint256"
        }
      ],
      "stateMutability": "view",
      "type": "function"
    },
    {
      "inputs": [
        {
          "internalType": "uint256",
          "name": "price",
          "type": "uint256"
        }
      ],
      "name": "changePrice",
      "outputs": [
        {
          "internalType": "bool",
          "name": "",
          "type": "bool"
        }
      ],
      "stateMutability": "nonpayable",
      "type": "function"
    },
    {
      "inputs": [
        {
          "components": [
            {
              "internalType": "address",
              "name": "sender",
              "type": "address"
            },
            {
              "internalType": "address",
              "name": "receiver",
              "type": "address"
            },
            {
              "internalType": "uint256",
              "name": "amount",
              "type": "uint256"
            },
            {
              "internalType": "string",
              "name": "uuid",
              "type": "string"
            }
          ],
          "internalType": "struct Mixtral8x7BModelMarket.Paymment",
          "name": "payment",
          "type": "tuple"
        },
        {
          "internalType": "uint256",
          "name": "actualAmount",
          "type": "uint256"
        },
        {
          "internalType": "bytes",
          "name": "signature",
          "type": "bytes"
        }
      ],
      "name": "claimFund",
      "outputs": [],
      "stateMutability": "nonpayable",
      "type": "function"
    },
    {
      "inputs": [
        {
          "components": [
            {
              "internalType": "address",
              "name": "sender",
              "type": "address"
            },
            {
              "internalType": "address",
              "name": "receiver",
              "type": "address"
            },
            {
              "internalType": "uint256",
              "name": "amount",
              "type": "uint256"
            },
            {
              "internalType": "string",
              "name": "uuid",
              "type": "string"
            }
          ],
          "internalType": "struct Mixtral8x7BModelMarket.Paymment[]",
          "name": "payments",
          "type": "tuple[]"
        },
        {
          "internalType": "uint256[]",
          "name": "actualAmounts",
          "type": "uint256[]"
        },
        {
          "internalType": "bytes[]",
          "name": "signatures",
          "type": "bytes[]"
        }
      ],
      "name": "claimFunds",
      "outputs": [],
      "stateMutability": "nonpayable",
      "type": "function"
    },
    {
      "inputs": [
        {
          "internalType": "uint256",
          "name": "amount",
          "type": "uint256"
        }
      ],
      "name": "deposit",
      "outputs": [
        {
          "internalType": "bool",
          "name": "",
          "type": "bool"
        }
      ],
      "stateMutability": "nonpayable",
      "type": "function"
    },
    {
      "inputs": [],
      "name": "getActiveHosts",
      "outputs": [
        {
          "components": [
            {
              "internalType": "string",
              "name": "url",
              "type": "string"
            },
            {
              "internalType": "address",
              "name": "hostAccount",
              "type": "address"
            },
            {
              "internalType": "uint256",
              "name": "price",
              "type": "uint256"
            }
          ],
          "internalType": "struct Mixtral8x7BModelMarket.Hoster[]",
          "name": "",
          "type": "tuple[]"
        }
      ],
      "stateMutability": "view",
      "type": "function"
    },
    {
      "inputs": [
        {
          "internalType": "address",
          "name": "node",
          "type": "address"
        }
      ],
      "name": "getHost",
      "outputs": [
        {
          "components": [
            {
              "internalType": "string",
              "name": "url",
              "type": "string"
            },
            {
              "internalType": "address",
              "name": "hostAccount",
              "type": "address"
            },
            {
              "internalType": "uint256",
              "name": "price",
              "type": "uint256"
            }
          ],
          "internalType": "struct Mixtral8x7BModelMarket.Hoster",
          "name": "",
          "type": "tuple"
        }
      ],
      "stateMutability": "view",
      "type": "function"
    },
    {
      "inputs": [],
      "name": "getHosts",
      "outputs": [
        {
          "components": [
            {
              "internalType": "string",
              "name": "url",
              "type": "string"
            },
            {
              "internalType": "address",
              "name": "hostAccount",
              "type": "address"
            },
            {
              "internalType": "uint256",
              "name": "price",
              "type": "uint256"
            }
          ],
          "internalType": "struct Mixtral8x7BModelMarket.Hoster[]",
          "name": "",
          "type": "tuple[]"
        }
      ],
      "stateMutability": "view",
      "type": "function"
    },
    {
      "inputs": [
        {
          "components": [
            {
              "internalType": "address",
              "name": "sender",
              "type": "address"
            },
            {
              "internalType": "address",
              "name": "receiver",
              "type": "address"
            },
            {
              "internalType": "uint256",
              "name": "amount",
              "type": "uint256"
            },
            {
              "internalType": "string",
              "name": "uuid",
              "type": "string"
            }
          ],
          "internalType": "struct Mixtral8x7BModelMarket.Paymment",
          "name": "payment",
          "type": "tuple"
        }
      ],
      "name": "getMessageHash",
      "outputs": [
        {
          "internalType": "bytes32",
          "name": "",
          "type": "bytes32"
        }
      ],
      "stateMutability": "pure",
      "type": "function"
    },
    {
      "inputs": [
        {
          "internalType": "address",
          "name": "host",
          "type": "address"
        },
        {
          "internalType": "string",
          "name": "uuid",
          "type": "string"
        }
      ],
      "name": "getPaidRequestFees",
      "outputs": [
        {
          "internalType": "uint256",
          "name": "",
          "type": "uint256"
        }
      ],
      "stateMutability": "view",
      "type": "function"
    },
    {
      "inputs": [
        {
          "internalType": "address",
          "name": "host",
          "type": "address"
        }
      ],
      "name": "getPaused",
      "outputs": [
        {
          "internalType": "bool",
          "name": "",
          "type": "bool"
        }
      ],
      "stateMutability": "view",
      "type": "function"
    },
    {
      "inputs": [
        {
          "internalType": "address",
          "name": "sender",
          "type": "address"
        },
        {
          "internalType": "uint256",
          "name": "amount",
          "type": "uint256"
        },
        {
          "internalType": "string",
          "name": "paymentUuid",
          "type": "string"
        }
      ],
      "name": "isPaymentAvailable",
      "outputs": [
        {
          "internalType": "bool",
          "name": "",
          "type": "bool"
        }
      ],
      "stateMutability": "view",
      "type": "function"
    },
    {
      "inputs": [
        {
          "internalType": "address",
          "name": "host",
          "type": "address"
        },
        {
          "internalType": "string",
          "name": "uuid",
          "type": "string"
        }
      ],
      "name": "paidRequestFees",
      "outputs": [
        {
          "internalType": "uint256",
          "name": "fees",
          "type": "uint256"
        }
      ],
      "stateMutability": "view",
      "type": "function"
    },
    {
      "inputs": [],
      "name": "pause",
      "outputs": [
        {
          "internalType": "bool",
          "name": "",
          "type": "bool"
        }
      ],
      "stateMutability": "nonpayable",
      "type": "function"
    },
    {
      "inputs": [
        {
          "internalType": "address",
          "name": "node",
          "type": "address"
        }
      ],
      "name": "pauseFromProofOfStake",
      "outputs": [
        {
          "internalType": "bool",
          "name": "",
          "type": "bool"
        }
      ],
      "stateMutability": "nonpayable",
      "type": "function"
    },
    {
      "inputs": [
        {
          "internalType": "address",
          "name": "host",
          "type": "address"
        }
      ],
      "name": "paused",
      "outputs": [
        {
          "internalType": "bool",
          "name": "",
          "type": "bool"
        }
      ],
      "stateMutability": "view",
      "type": "function"
    },
    {
      "inputs": [
        {
          "internalType": "string",
          "name": "uuid",
          "type": "string"
        }
      ],
      "name": "processedUuid",
      "outputs": [
        {
          "internalType": "bool",
          "name": "",
          "type": "bool"
        }
      ],
      "stateMutability": "view",
      "type": "function"
    },
    {
      "inputs": [
        {
          "internalType": "address",
          "name": "account",
          "type": "address"
        }
      ],
      "name": "removeHost",
      "outputs": [
        {
          "internalType": "bool",
          "name": "",
          "type": "bool"
        }
      ],
      "stateMutability": "nonpayable",
      "type": "function"
    },
    {
      "inputs": [],
      "name": "requestWithdraw",
      "outputs": [
        {
          "internalType": "uint256",
          "name": "",
          "type": "uint256"
        }
      ],
      "stateMutability": "nonpayable",
      "type": "function"
    },
    {
      "inputs": [
        {
          "internalType": "uint256",
          "name": "secs",
          "type": "uint256"
        }
      ],
      "name": "setWithdrawHoldTime",
      "outputs": [
        {
          "internalType": "uint256",
          "name": "",
          "type": "uint256"
        }
      ],
      "stateMutability": "nonpayable",
      "type": "function"
    },
    {
      "inputs": [],
      "name": "unpause",
      "outputs": [
        {
          "internalType": "bool",
          "name": "",
          "type": "bool"
        }
      ],
      "stateMutability": "nonpayable",
      "type": "function"
    },
    {
      "inputs": [
        {
          "components": [
            {
              "internalType": "address",
              "name": "sender",
              "type": "address"
            },
            {
              "internalType": "address",
              "name": "receiver",
              "type": "address"
            },
            {
              "internalType": "uint256",
              "name": "amount",
              "type": "uint256"
            },
            {
              "internalType": "string",
              "name": "uuid",
              "type": "string"
            }
          ],
          "internalType": "struct Mixtral8x7BModelMarket.Paymment",
          "name": "payment",
          "type": "tuple"
        },
        {
          "internalType": "bytes",
          "name": "signature",
          "type": "bytes"
        }
      ],
      "name": "verifyPayment",
      "outputs": [
        {
          "internalType": "bool",
          "name": "",
          "type": "bool"
        }
      ],
      "stateMutability": "pure",
      "type": "function"
    },
    {
      "inputs": [],
      "name": "withdraw",
      "outputs": [
        {
          "internalType": "uint256",
          "name": "",
          "type": "uint256"
        }
      ],
      "stateMutability": "nonpayable",
      "type": "function"
    },
    {
      "inputs": [],
      "name": "withdrawHoldTime",
      "outputs": [
        {
          "internalType": "uint256",
          "name": "",
          "type": "uint256"
        }
      ],
      "stateMutability": "view",
      "type": "function"
    },
    {
      "inputs": [
        {
          "internalType": "address",
          "name": "client",
          "type": "address"
        }
      ],
      "name": "withdrawableAt",
      "outputs": [
        {
          "internalType": "uint256",
          "name": "",
          "type": "uint256"
        }
      ],
      "stateMutability": "view",
      "type": "function"
    }
  ],
  "bytecode": "0x6080604052610e106007553480156200001757600080fd5b50604051620044c3380380620044c383398181016040528101906200003d919062000130565b816000806101000a81548173ffffffffffffffffffffffffffffffffffffffff021916908373ffffffffffffffffffffffffffffffffffffffff16021790555080600160006101000a81548173ffffffffffffffffffffffffffffffffffffffff021916908373ffffffffffffffffffffffffffffffffffffffff160217905550505062000177565b600080fd5b600073ffffffffffffffffffffffffffffffffffffffff82169050919050565b6000620000f882620000cb565b9050919050565b6200010a81620000eb565b81146200011657600080fd5b50565b6000815190506200012a81620000ff565b92915050565b600080604083850312156200014a5762000149620000c6565b5b60006200015a8582860162000119565b92505060206200016d8582860162000119565b9150509250929050565b61433c80620001876000396000f3fe608060405234801561001057600080fd5b50600436106101c45760003560e01c80638456cb59116100f9578063bcd8c9b011610097578063dd6388fb11610071578063dd6388fb146105a5578063e0362d67146105d5578063e423518b14610605578063e856f33914610635576101c4565b8063bcd8c9b014610513578063c766c2c714610543578063dab70c5314610575576101c4565b8063a4a83d47116100d3578063a4a83d4714610465578063b3423eec14610495578063b55d9904146104b3578063b6b55f25146104e3576101c4565b80638456cb59146103f95780639123a73814610417578063a2b40d1914610435576101c4565b80633ccfd60b116101665780634953bd75116101405780634953bd751461035f5780634b5e7d701461037d5780635a8c06ab146103ad578063808f605a146103dd576101c4565b80633ccfd60b146102f35780633f4ba83a1461031157806348ac99b81461032f576101c4565b806327e235e3116101a257806327e235e3146102455780632e48152c1461027557806337977771146102a5578063391d0b75146102d5576101c4565b80630be70264146101c95780630c96c68a146101f957806325c621f414610215575b600080fd5b6101e360048036038101906101de9190612c62565b610665565b6040516101f09190612cf5565b60405180910390f35b610213600480360381019061020e9190612f9a565b6106ba565b005b61022f600480360381019061022a9190613041565b61074f565b60405161023c919061307d565b60405180910390f35b61025f600480360381019061025a9190613098565b6107f3565b60405161026c919061307d565b60405180910390f35b61028f600480360381019061028a9190613098565b61080b565b60405161029c9190612cf5565b60405180910390f35b6102bf60048036038101906102ba91906130c5565b61082b565b6040516102cc9190612cf5565b60405180910390f35b6102dd61098e565b6040516102ea91906132e3565b60405180910390f35b6102fb610adf565b604051610308919061307d565b60405180910390f35b610319610d30565b6040516103269190612cf5565b60405180910390f35b61034960048036038101906103449190613305565b610d90565b6040516103569190613367565b60405180910390f35b610367610dd6565b60405161037491906132e3565b60405180910390f35b610397600480360381019061039291906130c5565b611100565b6040516103a49190612cf5565b60405180910390f35b6103c760048036038101906103c29190613098565b611464565b6040516103d4919061307d565b60405180910390f35b6103f760048036038101906103f29190613382565b61147c565b005b61040161148e565b60405161040e9190612cf5565b60405180910390f35b61041f6114ef565b60405161042c919061307d565b60405180910390f35b61044f600480360381019061044a9190613041565b6114f5565b60405161045c9190612cf5565b60405180910390f35b61047f600480360381019061047a919061340d565b6115ce565b60405161048c9190612cf5565b60405180910390f35b61049d61169b565b6040516104aa919061307d565b60405180910390f35b6104cd60048036038101906104c89190613098565b6117b4565b6040516104da9190612cf5565b60405180910390f35b6104fd60048036038101906104f89190613041565b61180a565b60405161050a9190612cf5565b60405180910390f35b61052d60048036038101906105289190613098565b6119ee565b60405161053a91906134cc565b60405180910390f35b61055d60048036038101906105589190613041565b611bf3565b60405161056c93929190613547565b60405180910390f35b61058f600480360381019061058a9190613098565b611cd5565b60405161059c9190612cf5565b60405180910390f35b6105bf60048036038101906105ba9190613098565b611dc9565b6040516105cc9190612cf5565b60405180910390f35b6105ef60048036038101906105ea9190613585565b6120da565b6040516105fc919061307d565b60405180910390f35b61061f600480360381019061061a91906135e1565b612140565b60405161062c9190612cf5565b60405180910390f35b61064f600480360381019061064a9190613585565b612176565b60405161065c919061307d565b60405180910390f35b600061067183836121b1565b6106b0576040517f08c379a00000000000000000000000000000000000000000000000000000000081526004016106a790613676565b60405180910390fd5b6001905092915050565b815183511480156106cc575080518251145b6106d557600080fd5b60005b83518110156107495761073c8482815181106106f7576106f6613696565b5b602002602001015184838151811061071257610711613696565b5b602002602001015184848151811061072d5761072c613696565b5b60200260200101516001612218565b80806001019150506106d8565b50505050565b60008060009054906101000a900473ffffffffffffffffffffffffffffffffffffffff1673ffffffffffffffffffffffffffffffffffffffff163373ffffffffffffffffffffffffffffffffffffffff16146107e257336040517f8e4a23d60000000000000000000000000000000000000000000000000000000081526004016107d991906136c5565b60405180910390fd5b816007819055506007549050919050565b60056020528060005260406000206000915090505481565b60046020528060005260406000206000915054906101000a900460ff1681565b60008060009054906101000a900473ffffffffffffffffffffffffffffffffffffffff1673ffffffffffffffffffffffffffffffffffffffff163373ffffffffffffffffffffffffffffffffffffffff16146108be57336040517f8e4a23d60000000000000000000000000000000000000000000000000000000081526004016108b591906136c5565b60405180910390fd5b600260405180606001604052808681526020018573ffffffffffffffffffffffffffffffffffffffff168152602001848152509080600181540180825580915050600190039060005260206000209060030201600090919091909150600082015181600001908161092f91906138ec565b5060208201518160010160006101000a81548173ffffffffffffffffffffffffffffffffffffffff021916908373ffffffffffffffffffffffffffffffffffffffff160217905550604082015181600201555050600190509392505050565b60606002805480602002602001604051908101604052809291908181526020016000905b82821015610ad657838290600052602060002090600302016040518060600160405290816000820180546109e59061370f565b80601f0160208091040260200160405190810160405280929190818152602001828054610a119061370f565b8015610a5e5780601f10610a3357610100808354040283529160200191610a5e565b820191906000526020600020905b815481529060010190602001808311610a4157829003601f168201915b505050505081526020016001820160009054906101000a900473ffffffffffffffffffffffffffffffffffffffff1673ffffffffffffffffffffffffffffffffffffffff1673ffffffffffffffffffffffffffffffffffffffff168152602001600282015481525050815260200190600101906109b2565b50505050905090565b600080600560003373ffffffffffffffffffffffffffffffffffffffff1673ffffffffffffffffffffffffffffffffffffffff1681526020019081526020016000205490506000600660003373ffffffffffffffffffffffffffffffffffffffff1673ffffffffffffffffffffffffffffffffffffffff1681526020019081526020016000205414158015610bb35750600660003373ffffffffffffffffffffffffffffffffffffffff1673ffffffffffffffffffffffffffffffffffffffff168152602001908152602001600020544210155b8015610bbf5750600081115b610bfe576040517f08c379a0000000000000000000000000000000000000000000000000000000008152600401610bf590613a0a565b60405180910390fd5b600160009054906101000a900473ffffffffffffffffffffffffffffffffffffffff1673ffffffffffffffffffffffffffffffffffffffff1663a9059cbb33836040518363ffffffff1660e01b8152600401610c5b929190613a2a565b6020604051808303816000875af1158015610c7a573d6000803e3d6000fd5b505050506040513d601f19601f82011682018060405250810190610c9e9190613a7f565b506000600660003373ffffffffffffffffffffffffffffffffffffffff1673ffffffffffffffffffffffffffffffffffffffff168152602001908152602001600020819055506000600560003373ffffffffffffffffffffffffffffffffffffffff1673ffffffffffffffffffffffffffffffffffffffff168152602001908152602001600020819055508091505090565b600080600460003373ffffffffffffffffffffffffffffffffffffffff1673ffffffffffffffffffffffffffffffffffffffff16815260200190815260200160002060006101000a81548160ff0219169083151502179055506001905090565b60008160000151826020015183604001518460600151604051602001610db99493929190613b51565b604051602081830303815290604052805190602001209050919050565b60606000805b600280549050811015610e9c576004600060028381548110610e0157610e00613696565b5b906000526020600020906003020160010160009054906101000a900473ffffffffffffffffffffffffffffffffffffffff1673ffffffffffffffffffffffffffffffffffffffff1673ffffffffffffffffffffffffffffffffffffffff16815260200190815260200160002060009054906101000a900460ff16610e8f57600182610e8c9190613bca565b91505b8080600101915050610ddc565b5060008167ffffffffffffffff811115610eb957610eb861295f565b5b604051908082528060200260200182016040528015610ef257816020015b610edf6128a1565b815260200190600190039081610ed75790505b5090506000805b6002805490508110156110f6576004600060028381548110610f1e57610f1d613696565b5b906000526020600020906003020160010160009054906101000a900473ffffffffffffffffffffffffffffffffffffffff1673ffffffffffffffffffffffffffffffffffffffff1673ffffffffffffffffffffffffffffffffffffffff16815260200190815260200160002060009054906101000a900460ff166110e95760028181548110610fb057610faf613696565b5b9060005260206000209060030201604051806060016040529081600082018054610fd99061370f565b80601f01602080910402602001604051908101604052809291908181526020018280546110059061370f565b80156110525780601f1061102757610100808354040283529160200191611052565b820191906000526020600020905b81548152906001019060200180831161103557829003601f168201915b505050505081526020016001820160009054906101000a900473ffffffffffffffffffffffffffffffffffffffff1673ffffffffffffffffffffffffffffffffffffffff1673ffffffffffffffffffffffffffffffffffffffff1681526020016002820154815250508383815181106110ce576110cd613696565b5b60200260200101819052506001826110e69190613bca565b91505b8080600101915050610ef9565b5081935050505090565b6000801515600460008573ffffffffffffffffffffffffffffffffffffffff1673ffffffffffffffffffffffffffffffffffffffff16815260200190815260200160002060009054906101000a900460ff16151514611194576040517f08c379a000000000000000000000000000000000000000000000000000000000815260040161118b90613c4a565b60405180910390fd5b60648210156111d8576040517f08c379a00000000000000000000000000000000000000000000000000000000081526004016111cf90613cb6565b60405180910390fd5b81600160009054906101000a900473ffffffffffffffffffffffffffffffffffffffff1673ffffffffffffffffffffffffffffffffffffffff1663dd62ed3e33306040518363ffffffff1660e01b8152600401611236929190613cd6565b602060405180830381865afa158015611253573d6000803e3d6000fd5b505050506040513d601f19601f820116820180604052508101906112779190613d14565b10156112b8576040517f08c379a00000000000000000000000000000000000000000000000000000000081526004016112af90613d8d565b60405180910390fd5b6000600360008573ffffffffffffffffffffffffffffffffffffffff1673ffffffffffffffffffffffffffffffffffffffff168152602001908152602001600020856040516113079190613dad565b90815260200160405180910390205414611356576040517f08c379a000000000000000000000000000000000000000000000000000000000815260040161134d90613e10565b60405180910390fd5b600160009054906101000a900473ffffffffffffffffffffffffffffffffffffffff1673ffffffffffffffffffffffffffffffffffffffff166323b872dd3385856040518463ffffffff1660e01b81526004016113b593929190613e30565b6020604051808303816000875af11580156113d4573d6000803e3d6000fd5b505050506040513d601f19601f820116820180604052508101906113f89190613a7f565b5081600360008573ffffffffffffffffffffffffffffffffffffffff1673ffffffffffffffffffffffffffffffffffffffff168152602001908152602001600020856040516114479190613dad565b908152602001604051809103902081905550600190509392505050565b60066020528060005260406000206000915090505481565b6114898383836000612218565b505050565b60006001600460003373ffffffffffffffffffffffffffffffffffffffff1673ffffffffffffffffffffffffffffffffffffffff16815260200190815260200160002060006101000a81548160ff0219169083151502179055506001905090565b60075481565b600080600090505b6002805490508110156115c3573373ffffffffffffffffffffffffffffffffffffffff166002828154811061153557611534613696565b5b906000526020600020906003020160010160009054906101000a900473ffffffffffffffffffffffffffffffffffffffff1673ffffffffffffffffffffffffffffffffffffffff16036115b657826002828154811061159757611596613696565b5b90600052602060002090600302016002018190555060019150506115c9565b80806001019150506114fd565b50600090505b919050565b600080600660008673ffffffffffffffffffffffffffffffffffffffff1673ffffffffffffffffffffffffffffffffffffffff1681526020019081526020016000205414801561164757506008826040516116299190613dad565b908152602001604051809103902060009054906101000a900460ff16155b8015611692575082600560008673ffffffffffffffffffffffffffffffffffffffff1673ffffffffffffffffffffffffffffffffffffffff1681526020019081526020016000205410155b90509392505050565b600080600660003373ffffffffffffffffffffffffffffffffffffffff1673ffffffffffffffffffffffffffffffffffffffff168152602001908152602001600020541461171e576040517f08c379a000000000000000000000000000000000000000000000000000000000815260040161171590613eb3565b60405180910390fd5b6007544261172c9190613bca565b600660003373ffffffffffffffffffffffffffffffffffffffff1673ffffffffffffffffffffffffffffffffffffffff16815260200190815260200160002081905550600660003373ffffffffffffffffffffffffffffffffffffffff1673ffffffffffffffffffffffffffffffffffffffff16815260200190815260200160002054905090565b6000600460008373ffffffffffffffffffffffffffffffffffffffff1673ffffffffffffffffffffffffffffffffffffffff16815260200190815260200160002060009054906101000a900460ff169050919050565b600081600160009054906101000a900473ffffffffffffffffffffffffffffffffffffffff1673ffffffffffffffffffffffffffffffffffffffff1663dd62ed3e33306040518363ffffffff1660e01b815260040161186a929190613cd6565b602060405180830381865afa158015611887573d6000803e3d6000fd5b505050506040513d601f19601f820116820180604052508101906118ab9190613d14565b10156118ec576040517f08c379a00000000000000000000000000000000000000000000000000000000081526004016118e390613d8d565b60405180910390fd5b600160009054906101000a900473ffffffffffffffffffffffffffffffffffffffff1673ffffffffffffffffffffffffffffffffffffffff166323b872dd3330856040518463ffffffff1660e01b815260040161194b93929190613e30565b6020604051808303816000875af115801561196a573d6000803e3d6000fd5b505050506040513d601f19601f8201168201806040525081019061198e9190613a7f565b5081600560003373ffffffffffffffffffffffffffffffffffffffff1673ffffffffffffffffffffffffffffffffffffffff16815260200190815260200160002060008282546119de9190613bca565b9250508190555060019050919050565b6119f66128a1565b60005b600280549050811015611bb2578273ffffffffffffffffffffffffffffffffffffffff1660028281548110611a3157611a30613696565b5b906000526020600020906003020160010160009054906101000a900473ffffffffffffffffffffffffffffffffffffffff1673ffffffffffffffffffffffffffffffffffffffff1603611ba55760028181548110611a9257611a91613696565b5b9060005260206000209060030201604051806060016040529081600082018054611abb9061370f565b80601f0160208091040260200160405190810160405280929190818152602001828054611ae79061370f565b8015611b345780601f10611b0957610100808354040283529160200191611b34565b820191906000526020600020905b815481529060010190602001808311611b1757829003601f168201915b505050505081526020016001820160009054906101000a900473ffffffffffffffffffffffffffffffffffffffff1673ffffffffffffffffffffffffffffffffffffffff1673ffffffffffffffffffffffffffffffffffffffff168152602001600282015481525050915050611bee565b80806001019150506119f9565b506040517f08c379a0000000000000000000000000000000000000000000000000000000008152600401611be590613f1f565b60405180910390fd5b919050565b60028181548110611c0357600080fd5b9060005260206000209060030201600091509050806000018054611c269061370f565b80601f0160208091040260200160405190810160405280929190818152602001828054611c529061370f565b8015611c9f5780601f10611c7457610100808354040283529160200191611c9f565b820191906000526020600020905b815481529060010190602001808311611c8257829003601f168201915b5050505050908060010160009054906101000a900473ffffffffffffffffffffffffffffffffffffffff16908060020154905083565b60008060009054906101000a900473ffffffffffffffffffffffffffffffffffffffff1673ffffffffffffffffffffffffffffffffffffffff163373ffffffffffffffffffffffffffffffffffffffff1614611d6857336040517f8e4a23d6000000000000000000000000000000000000000000000000000000008152600401611d5f91906136c5565b60405180910390fd5b6001600460008473ffffffffffffffffffffffffffffffffffffffff1673ffffffffffffffffffffffffffffffffffffffff16815260200190815260200160002060006101000a81548160ff02191690831515021790555060019050919050565b60008060009054906101000a900473ffffffffffffffffffffffffffffffffffffffff1673ffffffffffffffffffffffffffffffffffffffff163373ffffffffffffffffffffffffffffffffffffffff1614611e5c57336040517f8e4a23d6000000000000000000000000000000000000000000000000000000008152600401611e5391906136c5565b60405180910390fd5b60005b6002805490508110156120cf578273ffffffffffffffffffffffffffffffffffffffff1660028281548110611e9757611e96613696565b5b906000526020600020906003020160010160009054906101000a900473ffffffffffffffffffffffffffffffffffffffff1673ffffffffffffffffffffffffffffffffffffffff16036120c25760028181548110611ef857611ef7613696565b5b906000526020600020906003020160008082016000611f1791906128d8565b6001820160006101000a81549073ffffffffffffffffffffffffffffffffffffffff02191690556002820160009055505060008190505b6001600280549050611f609190613f3f565b81101561204d576002600182611f769190613bca565b81548110611f8757611f86613696565b5b906000526020600020906003020160028281548110611fa957611fa8613696565b5b906000526020600020906003020160008201816000019081611fcb9190613f89565b506001820160009054906101000a900473ffffffffffffffffffffffffffffffffffffffff168160010160006101000a81548173ffffffffffffffffffffffffffffffffffffffff021916908373ffffffffffffffffffffffffffffffffffffffff160217905550600282015481600201559050508080600101915050611f4e565b5060028054806120605761205f614071565b5b60019003818190600052602060002090600302016000808201600061208591906128d8565b6001820160006101000a81549073ffffffffffffffffffffffffffffffffffffffff021916905560028201600090555050905560019150506120d5565b8080600101915050611e5f565b50600090505b919050565b6000600360008473ffffffffffffffffffffffffffffffffffffffff1673ffffffffffffffffffffffffffffffffffffffff168152602001908152602001600020826040516121299190613dad565b908152602001604051809103902054905092915050565b6008818051602081018201805184825260208301602085012081835280955050505050506000915054906101000a900460ff1681565b600360205281600052604060002081805160208101820180518482526020830160208501208183528095505050505050600091509150505481565b6000806121bd84610d90565b905060006121ca8261258b565b905060006121d882866125c1565b9050856000015173ffffffffffffffffffffffffffffffffffffffff168173ffffffffffffffffffffffffffffffffffffffff1614935050505092915050565b80156122bf57600884606001516040516122329190613dad565b908152602001604051809103902060009054906101000a900460ff1661258557836040015160056000866000015173ffffffffffffffffffffffffffffffffffffffff1673ffffffffffffffffffffffffffffffffffffffff16815260200190815260200160002054106125855783604001518311612585576122b584836121b1565b156125855761244a565b600884606001516040516122d39190613dad565b908152602001604051809103902060009054906101000a900460ff161561232f576040517f08c379a0000000000000000000000000000000000000000000000000000000008152600401612326906140ec565b60405180910390fd5b836040015160056000866000015173ffffffffffffffffffffffffffffffffffffffff1673ffffffffffffffffffffffffffffffffffffffff1681526020019081526020016000205410156123b9576040517f08c379a00000000000000000000000000000000000000000000000000000000081526004016123b090614158565b60405180910390fd5b8360400151831115612400576040517f08c379a00000000000000000000000000000000000000000000000000000000081526004016123f7906141ea565b60405180910390fd5b61240a84836121b1565b612449576040517f08c379a000000000000000000000000000000000000000000000000000000000815260040161244090614256565b60405180910390fd5b5b600160009054906101000a900473ffffffffffffffffffffffffffffffffffffffff1673ffffffffffffffffffffffffffffffffffffffff1663a9059cbb8560200151856040518363ffffffff1660e01b81526004016124ab929190613a2a565b6020604051808303816000875af11580156124ca573d6000803e3d6000fd5b505050506040513d601f19601f820116820180604052508101906124ee9190613a7f565b508260056000866000015173ffffffffffffffffffffffffffffffffffffffff1673ffffffffffffffffffffffffffffffffffffffff16815260200190815260200160002060008282546125429190613f3f565b9250508190555060016008856060015160405161255f9190613dad565b908152602001604051809103902060006101000a81548160ff0219169083151502179055505b50505050565b60007f19457468657265756d205369676e6564204d6573736167653a0a33320000000060005281601c52603c6000209050919050565b6000806000806125d186866125ed565b9250925092506125e18282612649565b82935050505092915050565b600080600060418451036126325760008060006020870151925060408701519150606087015160001a9050612624888285856127ad565b955095509550505050612642565b60006002855160001b9250925092505b9250925092565b6000600381111561265d5761265c614276565b5b8260038111156126705761266f614276565b5b03156127a9576001600381111561268a57612689614276565b5b82600381111561269d5761269c614276565b5b036126d4576040517ff645eedf00000000000000000000000000000000000000000000000000000000815260040160405180910390fd5b600260038111156126e8576126e7614276565b5b8260038111156126fb576126fa614276565b5b03612740578060001c6040517ffce698f7000000000000000000000000000000000000000000000000000000008152600401612737919061307d565b60405180910390fd5b60038081111561275357612752614276565b5b82600381111561276657612765614276565b5b036127a857806040517fd78bce0c00000000000000000000000000000000000000000000000000000000815260040161279f9190613367565b60405180910390fd5b5b5050565b60008060007f7fffffffffffffffffffffffffffffff5d576e7357a4501ddfe92f46681b20a08460001c11156127ed576000600385925092509250612897565b60006001888888886040516000815260200160405260405161281294939291906142c1565b6020604051602081039080840390855afa158015612834573d6000803e3d6000fd5b505050602060405103519050600073ffffffffffffffffffffffffffffffffffffffff168173ffffffffffffffffffffffffffffffffffffffff160361288857600060016000801b93509350935050612897565b8060008060001b935093509350505b9450945094915050565b604051806060016040528060608152602001600073ffffffffffffffffffffffffffffffffffffffff168152602001600081525090565b5080546128e49061370f565b6000825580601f106128f65750612915565b601f0160209004906000526020600020908101906129149190612918565b5b50565b5b80821115612931576000816000905550600101612919565b5090565b6000604051905090565b600080fd5b600080fd5b600080fd5b6000601f19601f8301169050919050565b7f4e487b7100000000000000000000000000000000000000000000000000000000600052604160045260246000fd5b6129978261294e565b810181811067ffffffffffffffff821117156129b6576129b561295f565b5b80604052505050565b60006129c9612935565b90506129d5828261298e565b919050565b600080fd5b600073ffffffffffffffffffffffffffffffffffffffff82169050919050565b6000612a0a826129df565b9050919050565b612a1a816129ff565b8114612a2557600080fd5b50565b600081359050612a3781612a11565b92915050565b6000819050919050565b612a5081612a3d565b8114612a5b57600080fd5b50565b600081359050612a6d81612a47565b92915050565b600080fd5b600080fd5b600067ffffffffffffffff821115612a9857612a9761295f565b5b612aa18261294e565b9050602081019050919050565b82818337600083830152505050565b6000612ad0612acb84612a7d565b6129bf565b905082815260208101848484011115612aec57612aeb612a78565b5b612af7848285612aae565b509392505050565b600082601f830112612b1457612b13612a73565b5b8135612b24848260208601612abd565b91505092915050565b600060808284031215612b4357612b42612949565b5b612b4d60806129bf565b90506000612b5d84828501612a28565b6000830152506020612b7184828501612a28565b6020830152506040612b8584828501612a5e565b604083015250606082013567ffffffffffffffff811115612ba957612ba86129da565b5b612bb584828501612aff565b60608301525092915050565b600067ffffffffffffffff821115612bdc57612bdb61295f565b5b612be58261294e565b9050602081019050919050565b6000612c05612c0084612bc1565b6129bf565b905082815260208101848484011115612c2157612c20612a78565b5b612c2c848285612aae565b509392505050565b600082601f830112612c4957612c48612a73565b5b8135612c59848260208601612bf2565b91505092915050565b60008060408385031215612c7957612c7861293f565b5b600083013567ffffffffffffffff811115612c9757612c96612944565b5b612ca385828601612b2d565b925050602083013567ffffffffffffffff811115612cc457612cc3612944565b5b612cd085828601612c34565b9150509250929050565b60008115159050919050565b612cef81612cda565b82525050565b6000602082019050612d0a6000830184612ce6565b92915050565b600067ffffffffffffffff821115612d2b57612d2a61295f565b5b602082029050602081019050919050565b600080fd5b6000612d54612d4f84612d10565b6129bf565b90508083825260208201905060208402830185811115612d7757612d76612d3c565b5b835b81811015612dbe57803567ffffffffffffffff811115612d9c57612d9b612a73565b5b808601612da98982612b2d565b85526020850194505050602081019050612d79565b5050509392505050565b600082601f830112612ddd57612ddc612a73565b5b8135612ded848260208601612d41565b91505092915050565b600067ffffffffffffffff821115612e1157612e1061295f565b5b602082029050602081019050919050565b6000612e35612e3084612df6565b6129bf565b90508083825260208201905060208402830185811115612e5857612e57612d3c565b5b835b81811015612e815780612e6d8882612a5e565b845260208401935050602081019050612e5a565b5050509392505050565b600082601f830112612ea057612e9f612a73565b5b8135612eb0848260208601612e22565b91505092915050565b600067ffffffffffffffff821115612ed457612ed361295f565b5b602082029050602081019050919050565b6000612ef8612ef384612eb9565b6129bf565b90508083825260208201905060208402830185811115612f1b57612f1a612d3c565b5b835b81811015612f6257803567ffffffffffffffff811115612f4057612f3f612a73565b5b808601612f4d8982612c34565b85526020850194505050602081019050612f1d565b5050509392505050565b600082601f830112612f8157612f80612a73565b5b8135612f91848260208601612ee5565b91505092915050565b600080600060608486031215612fb357612fb261293f565b5b600084013567ffffffffffffffff811115612fd157612fd0612944565b5b612fdd86828701612dc8565b935050602084013567ffffffffffffffff811115612ffe57612ffd612944565b5b61300a86828701612e8b565b925050604084013567ffffffffffffffff81111561302b5761302a612944565b5b61303786828701612f6c565b9150509250925092565b6000602082840312156130575761305661293f565b5b600061306584828501612a5e565b91505092915050565b61307781612a3d565b82525050565b6000602082019050613092600083018461306e565b92915050565b6000602082840312156130ae576130ad61293f565b5b60006130bc84828501612a28565b91505092915050565b6000806000606084860312156130de576130dd61293f565b5b600084013567ffffffffffffffff8111156130fc576130fb612944565b5b61310886828701612aff565b935050602061311986828701612a28565b925050604061312a86828701612a5e565b9150509250925092565b600081519050919050565b600082825260208201905092915050565b6000819050602082019050919050565b600081519050919050565b600082825260208201905092915050565b60005b8381101561319a57808201518184015260208101905061317f565b60008484015250505050565b60006131b182613160565b6131bb818561316b565b93506131cb81856020860161317c565b6131d48161294e565b840191505092915050565b6131e8816129ff565b82525050565b6131f781612a3d565b82525050565b6000606083016000830151848203600086015261321a82826131a6565b915050602083015161322f60208601826131df565b50604083015161324260408601826131ee565b508091505092915050565b600061325983836131fd565b905092915050565b6000602082019050919050565b600061327982613134565b613283818561313f565b93508360208202850161329585613150565b8060005b858110156132d157848403895281516132b2858261324d565b94506132bd83613261565b925060208a01995050600181019050613299565b50829750879550505050505092915050565b600060208201905081810360008301526132fd818461326e565b905092915050565b60006020828403121561331b5761331a61293f565b5b600082013567ffffffffffffffff81111561333957613338612944565b5b61334584828501612b2d565b91505092915050565b6000819050919050565b6133618161334e565b82525050565b600060208201905061337c6000830184613358565b92915050565b60008060006060848603121561339b5761339a61293f565b5b600084013567ffffffffffffffff8111156133b9576133b8612944565b5b6133c586828701612b2d565b93505060206133d686828701612a5e565b925050604084013567ffffffffffffffff8111156133f7576133f6612944565b5b61340386828701612c34565b9150509250925092565b6000806000606084860312156134265761342561293f565b5b600061343486828701612a28565b935050602061344586828701612a5e565b925050604084013567ffffffffffffffff81111561346657613465612944565b5b61347286828701612aff565b9150509250925092565b6000606083016000830151848203600086015261349982826131a6565b91505060208301516134ae60208601826131df565b5060408301516134c160408601826131ee565b508091505092915050565b600060208201905081810360008301526134e6818461347c565b905092915050565b600082825260208201905092915050565b600061350a82613160565b61351481856134ee565b935061352481856020860161317c565b61352d8161294e565b840191505092915050565b613541816129ff565b82525050565b6000606082019050818103600083015261356181866134ff565b90506135706020830185613538565b61357d604083018461306e565b949350505050565b6000806040838503121561359c5761359b61293f565b5b60006135aa85828601612a28565b925050602083013567ffffffffffffffff8111156135cb576135ca612944565b5b6135d785828601612aff565b9150509250929050565b6000602082840312156135f7576135f661293f565b5b600082013567ffffffffffffffff81111561361557613614612944565b5b61362184828501612aff565b91505092915050565b7f496e76616c6964207369676e6174757265000000000000000000000000000000600082015250565b60006136606011836134ee565b915061366b8261362a565b602082019050919050565b6000602082019050818103600083015261368f81613653565b9050919050565b7f4e487b7100000000000000000000000000000000000000000000000000000000600052603260045260246000fd5b60006020820190506136da6000830184613538565b92915050565b7f4e487b7100000000000000000000000000000000000000000000000000000000600052602260045260246000fd5b6000600282049050600182168061372757607f821691505b60208210810361373a576137396136e0565b5b50919050565b60008190508160005260206000209050919050565b60006020601f8301049050919050565b600082821b905092915050565b6000600883026137a27fffffffffffffffffffffffffffffffffffffffffffffffffffffffffffffffff82613765565b6137ac8683613765565b95508019841693508086168417925050509392505050565b6000819050919050565b60006137e96137e46137df84612a3d565b6137c4565b612a3d565b9050919050565b6000819050919050565b613803836137ce565b61381761380f826137f0565b848454613772565b825550505050565b600090565b61382c61381f565b6138378184846137fa565b505050565b5b8181101561385b57613850600082613824565b60018101905061383d565b5050565b601f8211156138a05761387181613740565b61387a84613755565b81016020851015613889578190505b61389d61389585613755565b83018261383c565b50505b505050565b600082821c905092915050565b60006138c3600019846008026138a5565b1980831691505092915050565b60006138dc83836138b2565b9150826002028217905092915050565b6138f582613160565b67ffffffffffffffff81111561390e5761390d61295f565b5b613918825461370f565b61392382828561385f565b600060209050601f8311600181146139565760008415613944578287015190505b61394e85826138d0565b8655506139b6565b601f19841661396486613740565b60005b8281101561398c57848901518255600182019150602085019450602081019050613967565b868310156139a957848901516139a5601f8916826138b2565b8355505b6001600288020188555050505b505050505050565b7f5769746864726177206973206e6f7420617661696c61626c65206e6f77000000600082015250565b60006139f4601d836134ee565b91506139ff826139be565b602082019050919050565b60006020820190508181036000830152613a23816139e7565b9050919050565b6000604082019050613a3f6000830185613538565b613a4c602083018461306e565b9392505050565b613a5c81612cda565b8114613a6757600080fd5b50565b600081519050613a7981613a53565b92915050565b600060208284031215613a9557613a9461293f565b5b6000613aa384828501613a6a565b91505092915050565b60008160601b9050919050565b6000613ac482613aac565b9050919050565b6000613ad682613ab9565b9050919050565b613aee613ae9826129ff565b613acb565b82525050565b6000819050919050565b613b0f613b0a82612a3d565b613af4565b82525050565b600081905092915050565b6000613b2b82613160565b613b358185613b15565b9350613b4581856020860161317c565b80840191505092915050565b6000613b5d8287613add565b601482019150613b6d8286613add565b601482019150613b7d8285613afe565b602082019150613b8d8284613b20565b915081905095945050505050565b7f4e487b7100000000000000000000000000000000000000000000000000000000600052601160045260246000fd5b6000613bd582612a3d565b9150613be083612a3d565b9250828201905080821115613bf857613bf7613b9b565b5b92915050565b7f43757272656e746c792070617573656421000000000000000000000000000000600082015250565b6000613c346011836134ee565b9150613c3f82613bfe565b602082019050919050565b60006020820190508181036000830152613c6381613c27565b9050919050565b7f42656c6f77206d696e696d756d207061796d656e742100000000000000000000600082015250565b6000613ca06016836134ee565b9150613cab82613c6a565b602082019050919050565b60006020820190508181036000830152613ccf81613c93565b9050919050565b6000604082019050613ceb6000830185613538565b613cf86020830184613538565b9392505050565b600081519050613d0e81612a47565b92915050565b600060208284031215613d2a57613d2961293f565b5b6000613d3884828501613cff565b91505092915050565b7f4e6f7420656e6f75676820616c6c6f77616e6365210000000000000000000000600082015250565b6000613d776015836134ee565b9150613d8282613d41565b602082019050919050565b60006020820190508181036000830152613da681613d6a565b9050919050565b6000613db98284613b20565b915081905092915050565b7f5555494420697320616c72656164792075736564000000000000000000000000600082015250565b6000613dfa6014836134ee565b9150613e0582613dc4565b602082019050919050565b60006020820190508181036000830152613e2981613ded565b9050919050565b6000606082019050613e456000830186613538565b613e526020830185613538565b613e5f604083018461306e565b949350505050565b7f5769746864726177207265717565737420616c7265616479206d616465640000600082015250565b6000613e9d601e836134ee565b9150613ea882613e67565b602082019050919050565b60006020820190508181036000830152613ecc81613e90565b9050919050565b7f486f7374206e6f7420666f756e64000000000000000000000000000000000000600082015250565b6000613f09600e836134ee565b9150613f1482613ed3565b602082019050919050565b60006020820190508181036000830152613f3881613efc565b9050919050565b6000613f4a82612a3d565b9150613f5583612a3d565b9250828203905081811115613f6d57613f6c613b9b565b5b92915050565b600081549050613f828161370f565b9050919050565b818103613f9757505061406f565b613fa082613f73565b67ffffffffffffffff811115613fb957613fb861295f565b5b613fc3825461370f565b613fce82828561385f565b6000601f831160018114613ffd5760008415613feb578287015490505b613ff585826138d0565b865550614068565b601f19841661400b87613740565b965061401686613740565b60005b8281101561403e57848901548255600182019150600185019450602081019050614019565b8683101561405b5784890154614057601f8916826138b2565b8355505b6001600288020188555050505b5050505050505b565b7f4e487b7100000000000000000000000000000000000000000000000000000000600052603160045260246000fd5b7f5061796d656e7420616c72656164792070726f63657373656400000000000000600082015250565b60006140d66019836134ee565b91506140e1826140a0565b602082019050919050565b60006020820190508181036000830152614105816140c9565b9050919050565b7f4e6f7420656e6f7567682062616c616e63650000000000000000000000000000600082015250565b60006141426012836134ee565b915061414d8261410c565b602082019050919050565b6000602082019050818103600083015261417181614135565b9050919050565b7f41637475616c20616d6f756e742063616e206e6f74206265206772656174657260008201527f207468616e206d617820616d6f756e7400000000000000000000000000000000602082015250565b60006141d46030836134ee565b91506141df82614178565b604082019050919050565b60006020820190508181036000830152614203816141c7565b9050919050565b7f496e76616c6964207061796d656e742072657175657374000000000000000000600082015250565b60006142406017836134ee565b915061424b8261420a565b602082019050919050565b6000602082019050818103600083015261426f81614233565b9050919050565b7f4e487b7100000000000000000000000000000000000000000000000000000000600052602160045260246000fd5b600060ff82169050919050565b6142bb816142a5565b82525050565b60006080820190506142d66000830187613358565b6142e360208301866142b2565b6142f06040830185613358565b6142fd6060830184613358565b9594505050505056fea26469706673582212205dc56c4ff3c0670e4d6f9a8e86b0efc524b6a8ff98df5dc336ebd09dd038059464736f6c63430008180033",
  "linkReferences": {},
  "deployedLinkReferences": {}
}