{
  "_format": "hh-sol-artifact-1",
  "contractName": "Mixtral8x7BModelMarket",
  "sourceName": "contracts/LLMMarket.sol",
  "abi": [
    {
      "inputs": [
        {
          "internalType": "address",
          "name": "proofOfStakeContract",
          "type": "address"
        },
        {
          "internalType": "address",
          "name": "paymentTokenAddress",
          "type": "address"
        }
      ],
      "stateMutability": "nonpayable",
      "type": "constructor"
    },
    {
      "inputs": [],
      "name": "ECDSAInvalidSignature",
      "type": "error"
    },
    {
      "inputs": [
        {
          "internalType": "uint256",
          "name": "length",
          "type": "uint256"
        }
      ],
      "name": "ECDSAInvalidSignatureLength",
      "type": "error"
    },
    {
      "inputs": [
        {
          "internalType": "bytes32",
          "name": "s",
          "type": "bytes32"
        }
      ],
      "name": "ECDSAInvalidSignatureS",
      "type": "error"
    },
    {
      "inputs": [
        {
          "internalType": "address",
          "name": "account",
          "type": "address"
        }
      ],
      "name": "Unauthorized",
      "type": "error"
    },
    {
      "inputs": [
        {
          "internalType": "string",
          "name": "url",
          "type": "string"
        },
        {
          "internalType": "address",
          "name": "account",
          "type": "address"
        },
        {
          "internalType": "uint256",
          "name": "price",
          "type": "uint256"
        }
      ],
      "name": "addHost",
      "outputs": [
        {
          "internalType": "bool",
          "name": "",
          "type": "bool"
        }
      ],
      "stateMutability": "nonpayable",
      "type": "function"
    },
    {
      "inputs": [
        {
          "internalType": "string",
          "name": "uuid",
          "type": "string"
        },
        {
          "internalType": "address",
          "name": "host",
          "type": "address"
        },
        {
          "internalType": "uint256",
          "name": "value",
          "type": "uint256"
        }
      ],
      "name": "addRequest",
      "outputs": [
        {
          "internalType": "bool",
          "name": "",
          "type": "bool"
        }
      ],
      "stateMutability": "nonpayable",
      "type": "function"
    },
    {
      "inputs": [
        {
          "internalType": "uint256",
          "name": "",
          "type": "uint256"
        }
      ],
      "name": "allHosts",
      "outputs": [
        {
          "internalType": "string",
          "name": "url",
          "type": "string"
        },
        {
          "internalType": "address",
          "name": "hostAccount",
          "type": "address"
        },
        {
          "internalType": "uint256",
          "name": "price",
          "type": "uint256"
        }
      ],
      "stateMutability": "view",
      "type": "function"
    },
    {
      "inputs": [
        {
          "internalType": "address",
          "name": "client",
          "type": "address"
        }
      ],
      "name": "balances",
      "outputs": [
        {
          "internalType": "uint256",
          "name": "",
          "type": "uint256"
        }
      ],
      "stateMutability": "view",
      "type": "function"
    },
    {
      "inputs": [
        {
          "internalType": "uint256",
          "name": "price",
          "type": "uint256"
        }
      ],
      "name": "changePrice",
      "outputs": [
        {
          "internalType": "bool",
          "name": "",
          "type": "bool"
        }
      ],
      "stateMutability": "nonpayable",
      "type": "function"
    },
    {
      "inputs": [
        {
          "components": [
            {
              "internalType": "address",
              "name": "sender",
              "type": "address"
            },
            {
              "internalType": "address",
              "name": "receiver",
              "type": "address"
            },
            {
              "internalType": "uint256",
              "name": "amount",
              "type": "uint256"
            },
            {
              "internalType": "string",
              "name": "uuid",
              "type": "string"
            }
          ],
          "internalType": "struct Mixtral8x7BModelMarket.Paymment",
          "name": "payment",
          "type": "tuple"
        },
        {
          "internalType": "uint256",
          "name": "actualAmount",
          "type": "uint256"
        },
        {
          "internalType": "bytes",
          "name": "signature",
          "type": "bytes"
        }
      ],
      "name": "claimFund",
      "outputs": [],
      "stateMutability": "nonpayable",
      "type": "function"
    },
    {
      "inputs": [
        {
          "components": [
            {
              "internalType": "address",
              "name": "sender",
              "type": "address"
            },
            {
              "internalType": "address",
              "name": "receiver",
              "type": "address"
            },
            {
              "internalType": "uint256",
              "name": "amount",
              "type": "uint256"
            },
            {
              "internalType": "string",
              "name": "uuid",
              "type": "string"
            }
          ],
          "internalType": "struct Mixtral8x7BModelMarket.Paymment[]",
          "name": "payments",
          "type": "tuple[]"
        },
        {
          "internalType": "uint256[]",
          "name": "actualAmounts",
          "type": "uint256[]"
        },
        {
          "internalType": "bytes[]",
          "name": "signatures",
          "type": "bytes[]"
        }
      ],
      "name": "claimFunds",
      "outputs": [],
      "stateMutability": "nonpayable",
      "type": "function"
    },
    {
      "inputs": [
        {
          "internalType": "uint256",
          "name": "amount",
          "type": "uint256"
        }
      ],
      "name": "deposit",
      "outputs": [
        {
          "internalType": "bool",
          "name": "",
          "type": "bool"
        }
      ],
      "stateMutability": "nonpayable",
      "type": "function"
    },
    {
      "inputs": [
        {
          "internalType": "address",
          "name": "node",
          "type": "address"
        }
      ],
      "name": "getHost",
      "outputs": [
        {
          "components": [
            {
              "internalType": "string",
              "name": "url",
              "type": "string"
            },
            {
              "internalType": "address",
              "name": "hostAccount",
              "type": "address"
            },
            {
              "internalType": "uint256",
              "name": "price",
              "type": "uint256"
            }
          ],
          "internalType": "struct Mixtral8x7BModelMarket.Hoster",
          "name": "",
          "type": "tuple"
        }
      ],
      "stateMutability": "view",
      "type": "function"
    },
    {
      "inputs": [],
      "name": "getHosts",
      "outputs": [
        {
          "components": [
            {
              "internalType": "string",
              "name": "url",
              "type": "string"
            },
            {
              "internalType": "address",
              "name": "hostAccount",
              "type": "address"
            },
            {
              "internalType": "uint256",
              "name": "price",
              "type": "uint256"
            }
          ],
          "internalType": "struct Mixtral8x7BModelMarket.Hoster[]",
          "name": "",
          "type": "tuple[]"
        }
      ],
      "stateMutability": "view",
      "type": "function"
    },
    {
      "inputs": [
        {
          "components": [
            {
              "internalType": "address",
              "name": "sender",
              "type": "address"
            },
            {
              "internalType": "address",
              "name": "receiver",
              "type": "address"
            },
            {
              "internalType": "uint256",
              "name": "amount",
              "type": "uint256"
            },
            {
              "internalType": "string",
              "name": "uuid",
              "type": "string"
            }
          ],
          "internalType": "struct Mixtral8x7BModelMarket.Paymment",
          "name": "payment",
          "type": "tuple"
        }
      ],
      "name": "getMessageHash",
      "outputs": [
        {
          "internalType": "bytes32",
          "name": "",
          "type": "bytes32"
        }
      ],
      "stateMutability": "pure",
      "type": "function"
    },
    {
      "inputs": [
        {
          "internalType": "address",
          "name": "host",
          "type": "address"
        },
        {
          "internalType": "string",
          "name": "uuid",
          "type": "string"
        }
      ],
      "name": "getPaidRequestFees",
      "outputs": [
        {
          "internalType": "uint256",
          "name": "",
          "type": "uint256"
        }
      ],
      "stateMutability": "view",
      "type": "function"
    },
    {
      "inputs": [
        {
          "internalType": "address",
          "name": "host",
          "type": "address"
        }
      ],
      "name": "getPaused",
      "outputs": [
        {
          "internalType": "bool",
          "name": "",
          "type": "bool"
        }
      ],
      "stateMutability": "view",
      "type": "function"
    },
    {
      "inputs": [
        {
          "internalType": "address",
          "name": "sender",
          "type": "address"
        },
        {
          "internalType": "uint256",
          "name": "amount",
          "type": "uint256"
        },
        {
          "internalType": "string",
          "name": "paymentUuid",
          "type": "string"
        }
      ],
      "name": "isPaymentAvailable",
      "outputs": [
        {
          "internalType": "bool",
          "name": "",
          "type": "bool"
        }
      ],
      "stateMutability": "view",
      "type": "function"
    },
    {
      "inputs": [
        {
          "internalType": "address",
          "name": "host",
          "type": "address"
        },
        {
          "internalType": "string",
          "name": "",
          "type": "string"
        }
      ],
      "name": "paidRequestFees",
      "outputs": [
        {
          "internalType": "uint256",
          "name": "",
          "type": "uint256"
        }
      ],
      "stateMutability": "view",
      "type": "function"
    },
    {
      "inputs": [],
      "name": "pause",
      "outputs": [
        {
          "internalType": "bool",
          "name": "",
          "type": "bool"
        }
      ],
      "stateMutability": "nonpayable",
      "type": "function"
    },
    {
      "inputs": [
        {
          "internalType": "address",
          "name": "node",
          "type": "address"
        }
      ],
      "name": "pauseFromProofOfStake",
      "outputs": [
        {
          "internalType": "bool",
          "name": "",
          "type": "bool"
        }
      ],
      "stateMutability": "nonpayable",
      "type": "function"
    },
    {
      "inputs": [
        {
          "internalType": "address",
          "name": "host",
          "type": "address"
        }
      ],
      "name": "paused",
      "outputs": [
        {
          "internalType": "bool",
          "name": "",
          "type": "bool"
        }
      ],
      "stateMutability": "view",
      "type": "function"
    },
    {
      "inputs": [
        {
          "internalType": "string",
          "name": "uuid",
          "type": "string"
        }
      ],
      "name": "processedUuid",
      "outputs": [
        {
          "internalType": "bool",
          "name": "",
          "type": "bool"
        }
      ],
      "stateMutability": "view",
      "type": "function"
    },
    {
      "inputs": [
        {
          "internalType": "address",
          "name": "account",
          "type": "address"
        }
      ],
      "name": "removeHost",
      "outputs": [
        {
          "internalType": "bool",
          "name": "",
          "type": "bool"
        }
      ],
      "stateMutability": "nonpayable",
      "type": "function"
    },
    {
      "inputs": [],
      "name": "requestWithdraw",
      "outputs": [
        {
          "internalType": "uint256",
          "name": "",
          "type": "uint256"
        }
      ],
      "stateMutability": "nonpayable",
      "type": "function"
    },
    {
      "inputs": [
        {
          "internalType": "uint256",
          "name": "secs",
          "type": "uint256"
        }
      ],
      "name": "setWithdrawHoldTime",
      "outputs": [
        {
          "internalType": "uint256",
          "name": "",
          "type": "uint256"
        }
      ],
      "stateMutability": "nonpayable",
      "type": "function"
    },
    {
      "inputs": [],
      "name": "unpause",
      "outputs": [
        {
          "internalType": "bool",
          "name": "",
          "type": "bool"
        }
      ],
      "stateMutability": "nonpayable",
      "type": "function"
    },
    {
      "inputs": [
        {
          "components": [
            {
              "internalType": "address",
              "name": "sender",
              "type": "address"
            },
            {
              "internalType": "address",
              "name": "receiver",
              "type": "address"
            },
            {
              "internalType": "uint256",
              "name": "amount",
              "type": "uint256"
            },
            {
              "internalType": "string",
              "name": "uuid",
              "type": "string"
            }
          ],
          "internalType": "struct Mixtral8x7BModelMarket.Paymment",
          "name": "payment",
          "type": "tuple"
        },
        {
          "internalType": "bytes",
          "name": "signature",
          "type": "bytes"
        }
      ],
      "name": "verifyPayment",
      "outputs": [
        {
          "internalType": "bool",
          "name": "",
          "type": "bool"
        }
      ],
      "stateMutability": "pure",
      "type": "function"
    },
    {
      "inputs": [],
      "name": "withdraw",
      "outputs": [
        {
          "internalType": "uint256",
          "name": "",
          "type": "uint256"
        }
      ],
      "stateMutability": "nonpayable",
      "type": "function"
    },
    {
      "inputs": [],
      "name": "withdrawHoldTime",
      "outputs": [
        {
          "internalType": "uint256",
          "name": "",
          "type": "uint256"
        }
      ],
      "stateMutability": "view",
      "type": "function"
    },
    {
      "inputs": [
        {
          "internalType": "address",
          "name": "client",
          "type": "address"
        }
      ],
      "name": "withdrawableAt",
      "outputs": [
        {
          "internalType": "uint256",
          "name": "",
          "type": "uint256"
        }
      ],
      "stateMutability": "view",
      "type": "function"
    }
  ],
  "bytecode": "0x6080604052610e106007553480156200001757600080fd5b50604051620041603803806200416083398181016040528101906200003d919062000130565b816000806101000a81548173ffffffffffffffffffffffffffffffffffffffff021916908373ffffffffffffffffffffffffffffffffffffffff16021790555080600160006101000a81548173ffffffffffffffffffffffffffffffffffffffff021916908373ffffffffffffffffffffffffffffffffffffffff160217905550505062000177565b600080fd5b600073ffffffffffffffffffffffffffffffffffffffff82169050919050565b6000620000f882620000cb565b9050919050565b6200010a81620000eb565b81146200011657600080fd5b50565b6000815190506200012a81620000ff565b92915050565b600080604083850312156200014a5762000149620000c6565b5b60006200015a8582860162000119565b92505060206200016d8582860162000119565b9150509250929050565b613fd980620001876000396000f3fe608060405234801561001057600080fd5b50600436106101a95760003560e01c80638456cb59116100f9578063bcd8c9b011610097578063dd6388fb11610071578063dd6388fb1461056c578063e0362d671461059c578063e423518b146105cc578063e856f339146105fc576101a9565b8063bcd8c9b0146104da578063c766c2c71461050a578063dab70c531461053c576101a9565b8063a4a83d47116100d3578063a4a83d471461042c578063b3423eec1461045c578063b55d99041461047a578063b6b55f25146104aa576101a9565b80638456cb59146103c05780639123a738146103de578063a2b40d19146103fc576101a9565b8063391d0b751161016657806348ac99b81161014057806348ac99b8146103145780634b5e7d70146103445780635a8c06ab14610374578063808f605a146103a4576101a9565b8063391d0b75146102ba5780633ccfd60b146102d85780633f4ba83a146102f6576101a9565b80630be70264146101ae5780630c96c68a146101de57806325c621f4146101fa57806327e235e31461022a5780632e48152c1461025a578063379777711461028a575b600080fd5b6101c860048036038101906101c391906128ff565b61062c565b6040516101d59190612992565b60405180910390f35b6101f860048036038101906101f39190612c37565b610681565b005b610214600480360381019061020f9190612cde565b610716565b6040516102219190612d1a565b60405180910390f35b610244600480360381019061023f9190612d35565b6107ba565b6040516102519190612d1a565b60405180910390f35b610274600480360381019061026f9190612d35565b6107d2565b6040516102819190612992565b60405180910390f35b6102a4600480360381019061029f9190612d62565b6107f2565b6040516102b19190612992565b60405180910390f35b6102c2610955565b6040516102cf9190612f80565b60405180910390f35b6102e0610aa6565b6040516102ed9190612d1a565b60405180910390f35b6102fe610cf7565b60405161030b9190612992565b60405180910390f35b61032e60048036038101906103299190612fa2565b610d57565b60405161033b9190613004565b60405180910390f35b61035e60048036038101906103599190612d62565b610d9d565b60405161036b9190612992565b60405180910390f35b61038e60048036038101906103899190612d35565b611101565b60405161039b9190612d1a565b60405180910390f35b6103be60048036038101906103b9919061301f565b611119565b005b6103c861112b565b6040516103d59190612992565b60405180910390f35b6103e661118c565b6040516103f39190612d1a565b60405180910390f35b61041660048036038101906104119190612cde565b611192565b6040516104239190612992565b60405180910390f35b610446600480360381019061044191906130aa565b61126b565b6040516104539190612992565b60405180910390f35b610464611338565b6040516104719190612d1a565b60405180910390f35b610494600480360381019061048f9190612d35565b611451565b6040516104a19190612992565b60405180910390f35b6104c460048036038101906104bf9190612cde565b6114a7565b6040516104d19190612992565b60405180910390f35b6104f460048036038101906104ef9190612d35565b61168b565b6040516105019190613169565b60405180910390f35b610524600480360381019061051f9190612cde565b611890565b604051610533939291906131e4565b60405180910390f35b61055660048036038101906105519190612d35565b611972565b6040516105639190612992565b60405180910390f35b61058660048036038101906105819190612d35565b611a66565b6040516105939190612992565b60405180910390f35b6105b660048036038101906105b19190613222565b611d77565b6040516105c39190612d1a565b60405180910390f35b6105e660048036038101906105e1919061327e565b611ddd565b6040516105f39190612992565b60405180910390f35b61061660048036038101906106119190613222565b611e13565b6040516106239190612d1a565b60405180910390f35b60006106388383611e4e565b610677576040517f08c379a000000000000000000000000000000000000000000000000000000000815260040161066e90613313565b60405180910390fd5b6001905092915050565b81518351148015610693575080518251145b61069c57600080fd5b60005b8351811015610710576107038482815181106106be576106bd613333565b5b60200260200101518483815181106106d9576106d8613333565b5b60200260200101518484815181106106f4576106f3613333565b5b60200260200101516001611eb5565b808060010191505061069f565b50505050565b60008060009054906101000a900473ffffffffffffffffffffffffffffffffffffffff1673ffffffffffffffffffffffffffffffffffffffff163373ffffffffffffffffffffffffffffffffffffffff16146107a957336040517f8e4a23d60000000000000000000000000000000000000000000000000000000081526004016107a09190613362565b60405180910390fd5b816007819055506007549050919050565b60056020528060005260406000206000915090505481565b60046020528060005260406000206000915054906101000a900460ff1681565b60008060009054906101000a900473ffffffffffffffffffffffffffffffffffffffff1673ffffffffffffffffffffffffffffffffffffffff163373ffffffffffffffffffffffffffffffffffffffff161461088557336040517f8e4a23d600000000000000000000000000000000000000000000000000000000815260040161087c9190613362565b60405180910390fd5b600260405180606001604052808681526020018573ffffffffffffffffffffffffffffffffffffffff16815260200184815250908060018154018082558091505060019003906000526020600020906003020160009091909190915060008201518160000190816108f69190613589565b5060208201518160010160006101000a81548173ffffffffffffffffffffffffffffffffffffffff021916908373ffffffffffffffffffffffffffffffffffffffff160217905550604082015181600201555050600190509392505050565b60606002805480602002602001604051908101604052809291908181526020016000905b82821015610a9d57838290600052602060002090600302016040518060600160405290816000820180546109ac906133ac565b80601f01602080910402602001604051908101604052809291908181526020018280546109d8906133ac565b8015610a255780601f106109fa57610100808354040283529160200191610a25565b820191906000526020600020905b815481529060010190602001808311610a0857829003601f168201915b505050505081526020016001820160009054906101000a900473ffffffffffffffffffffffffffffffffffffffff1673ffffffffffffffffffffffffffffffffffffffff1673ffffffffffffffffffffffffffffffffffffffff16815260200160028201548152505081526020019060010190610979565b50505050905090565b600080600560003373ffffffffffffffffffffffffffffffffffffffff1673ffffffffffffffffffffffffffffffffffffffff1681526020019081526020016000205490506000600660003373ffffffffffffffffffffffffffffffffffffffff1673ffffffffffffffffffffffffffffffffffffffff1681526020019081526020016000205414158015610b7a5750600660003373ffffffffffffffffffffffffffffffffffffffff1673ffffffffffffffffffffffffffffffffffffffff168152602001908152602001600020544210155b8015610b865750600081115b610bc5576040517f08c379a0000000000000000000000000000000000000000000000000000000008152600401610bbc906136a7565b60405180910390fd5b600160009054906101000a900473ffffffffffffffffffffffffffffffffffffffff1673ffffffffffffffffffffffffffffffffffffffff1663a9059cbb33836040518363ffffffff1660e01b8152600401610c229291906136c7565b6020604051808303816000875af1158015610c41573d6000803e3d6000fd5b505050506040513d601f19601f82011682018060405250810190610c65919061371c565b506000600660003373ffffffffffffffffffffffffffffffffffffffff1673ffffffffffffffffffffffffffffffffffffffff168152602001908152602001600020819055506000600560003373ffffffffffffffffffffffffffffffffffffffff1673ffffffffffffffffffffffffffffffffffffffff168152602001908152602001600020819055508091505090565b600080600460003373ffffffffffffffffffffffffffffffffffffffff1673ffffffffffffffffffffffffffffffffffffffff16815260200190815260200160002060006101000a81548160ff0219169083151502179055506001905090565b60008160000151826020015183604001518460600151604051602001610d8094939291906137ee565b604051602081830303815290604052805190602001209050919050565b6000801515600460008573ffffffffffffffffffffffffffffffffffffffff1673ffffffffffffffffffffffffffffffffffffffff16815260200190815260200160002060009054906101000a900460ff16151514610e31576040517f08c379a0000000000000000000000000000000000000000000000000000000008152600401610e2890613884565b60405180910390fd5b6064821015610e75576040517f08c379a0000000000000000000000000000000000000000000000000000000008152600401610e6c906138f0565b60405180910390fd5b81600160009054906101000a900473ffffffffffffffffffffffffffffffffffffffff1673ffffffffffffffffffffffffffffffffffffffff1663dd62ed3e33306040518363ffffffff1660e01b8152600401610ed3929190613910565b602060405180830381865afa158015610ef0573d6000803e3d6000fd5b505050506040513d601f19601f82011682018060405250810190610f14919061394e565b1015610f55576040517f08c379a0000000000000000000000000000000000000000000000000000000008152600401610f4c906139c7565b60405180910390fd5b6000600360008573ffffffffffffffffffffffffffffffffffffffff1673ffffffffffffffffffffffffffffffffffffffff16815260200190815260200160002085604051610fa491906139e7565b90815260200160405180910390205414610ff3576040517f08c379a0000000000000000000000000000000000000000000000000000000008152600401610fea90613a4a565b60405180910390fd5b600160009054906101000a900473ffffffffffffffffffffffffffffffffffffffff1673ffffffffffffffffffffffffffffffffffffffff166323b872dd3385856040518463ffffffff1660e01b815260040161105293929190613a6a565b6020604051808303816000875af1158015611071573d6000803e3d6000fd5b505050506040513d601f19601f82011682018060405250810190611095919061371c565b5081600360008573ffffffffffffffffffffffffffffffffffffffff1673ffffffffffffffffffffffffffffffffffffffff168152602001908152602001600020856040516110e491906139e7565b908152602001604051809103902081905550600190509392505050565b60066020528060005260406000206000915090505481565b6111268383836000611eb5565b505050565b60006001600460003373ffffffffffffffffffffffffffffffffffffffff1673ffffffffffffffffffffffffffffffffffffffff16815260200190815260200160002060006101000a81548160ff0219169083151502179055506001905090565b60075481565b600080600090505b600280549050811015611260573373ffffffffffffffffffffffffffffffffffffffff16600282815481106111d2576111d1613333565b5b906000526020600020906003020160010160009054906101000a900473ffffffffffffffffffffffffffffffffffffffff1673ffffffffffffffffffffffffffffffffffffffff160361125357826002828154811061123457611233613333565b5b9060005260206000209060030201600201819055506001915050611266565b808060010191505061119a565b50600090505b919050565b600080600660008673ffffffffffffffffffffffffffffffffffffffff1673ffffffffffffffffffffffffffffffffffffffff168152602001908152602001600020541480156112e457506008826040516112c691906139e7565b908152602001604051809103902060009054906101000a900460ff16155b801561132f575082600560008673ffffffffffffffffffffffffffffffffffffffff1673ffffffffffffffffffffffffffffffffffffffff1681526020019081526020016000205410155b90509392505050565b600080600660003373ffffffffffffffffffffffffffffffffffffffff1673ffffffffffffffffffffffffffffffffffffffff16815260200190815260200160002054146113bb576040517f08c379a00000000000000000000000000000000000000000000000000000000081526004016113b290613aed565b60405180910390fd5b600754426113c99190613b3c565b600660003373ffffffffffffffffffffffffffffffffffffffff1673ffffffffffffffffffffffffffffffffffffffff16815260200190815260200160002081905550600660003373ffffffffffffffffffffffffffffffffffffffff1673ffffffffffffffffffffffffffffffffffffffff16815260200190815260200160002054905090565b6000600460008373ffffffffffffffffffffffffffffffffffffffff1673ffffffffffffffffffffffffffffffffffffffff16815260200190815260200160002060009054906101000a900460ff169050919050565b600081600160009054906101000a900473ffffffffffffffffffffffffffffffffffffffff1673ffffffffffffffffffffffffffffffffffffffff1663dd62ed3e33306040518363ffffffff1660e01b8152600401611507929190613910565b602060405180830381865afa158015611524573d6000803e3d6000fd5b505050506040513d601f19601f82011682018060405250810190611548919061394e565b1015611589576040517f08c379a0000000000000000000000000000000000000000000000000000000008152600401611580906139c7565b60405180910390fd5b600160009054906101000a900473ffffffffffffffffffffffffffffffffffffffff1673ffffffffffffffffffffffffffffffffffffffff166323b872dd3330856040518463ffffffff1660e01b81526004016115e893929190613a6a565b6020604051808303816000875af1158015611607573d6000803e3d6000fd5b505050506040513d601f19601f8201168201806040525081019061162b919061371c565b5081600560003373ffffffffffffffffffffffffffffffffffffffff1673ffffffffffffffffffffffffffffffffffffffff168152602001908152602001600020600082825461167b9190613b3c565b9250508190555060019050919050565b61169361253e565b60005b60028054905081101561184f578273ffffffffffffffffffffffffffffffffffffffff16600282815481106116ce576116cd613333565b5b906000526020600020906003020160010160009054906101000a900473ffffffffffffffffffffffffffffffffffffffff1673ffffffffffffffffffffffffffffffffffffffff1603611842576002818154811061172f5761172e613333565b5b9060005260206000209060030201604051806060016040529081600082018054611758906133ac565b80601f0160208091040260200160405190810160405280929190818152602001828054611784906133ac565b80156117d15780601f106117a6576101008083540402835291602001916117d1565b820191906000526020600020905b8154815290600101906020018083116117b457829003601f168201915b505050505081526020016001820160009054906101000a900473ffffffffffffffffffffffffffffffffffffffff1673ffffffffffffffffffffffffffffffffffffffff1673ffffffffffffffffffffffffffffffffffffffff16815260200160028201548152505091505061188b565b8080600101915050611696565b506040517f08c379a000000000000000000000000000000000000000000000000000000000815260040161188290613bbc565b60405180910390fd5b919050565b600281815481106118a057600080fd5b90600052602060002090600302016000915090508060000180546118c3906133ac565b80601f01602080910402602001604051908101604052809291908181526020018280546118ef906133ac565b801561193c5780601f106119115761010080835404028352916020019161193c565b820191906000526020600020905b81548152906001019060200180831161191f57829003601f168201915b5050505050908060010160009054906101000a900473ffffffffffffffffffffffffffffffffffffffff16908060020154905083565b60008060009054906101000a900473ffffffffffffffffffffffffffffffffffffffff1673ffffffffffffffffffffffffffffffffffffffff163373ffffffffffffffffffffffffffffffffffffffff1614611a0557336040517f8e4a23d60000000000000000000000000000000000000000000000000000000081526004016119fc9190613362565b60405180910390fd5b6001600460008473ffffffffffffffffffffffffffffffffffffffff1673ffffffffffffffffffffffffffffffffffffffff16815260200190815260200160002060006101000a81548160ff02191690831515021790555060019050919050565b60008060009054906101000a900473ffffffffffffffffffffffffffffffffffffffff1673ffffffffffffffffffffffffffffffffffffffff163373ffffffffffffffffffffffffffffffffffffffff1614611af957336040517f8e4a23d6000000000000000000000000000000000000000000000000000000008152600401611af09190613362565b60405180910390fd5b60005b600280549050811015611d6c578273ffffffffffffffffffffffffffffffffffffffff1660028281548110611b3457611b33613333565b5b906000526020600020906003020160010160009054906101000a900473ffffffffffffffffffffffffffffffffffffffff1673ffffffffffffffffffffffffffffffffffffffff1603611d5f5760028181548110611b9557611b94613333565b5b906000526020600020906003020160008082016000611bb49190612575565b6001820160006101000a81549073ffffffffffffffffffffffffffffffffffffffff02191690556002820160009055505060008190505b6001600280549050611bfd9190613bdc565b811015611cea576002600182611c139190613b3c565b81548110611c2457611c23613333565b5b906000526020600020906003020160028281548110611c4657611c45613333565b5b906000526020600020906003020160008201816000019081611c689190613c26565b506001820160009054906101000a900473ffffffffffffffffffffffffffffffffffffffff168160010160006101000a81548173ffffffffffffffffffffffffffffffffffffffff021916908373ffffffffffffffffffffffffffffffffffffffff160217905550600282015481600201559050508080600101915050611beb565b506002805480611cfd57611cfc613d0e565b5b600190038181906000526020600020906003020160008082016000611d229190612575565b6001820160006101000a81549073ffffffffffffffffffffffffffffffffffffffff02191690556002820160009055505090556001915050611d72565b8080600101915050611afc565b50600090505b919050565b6000600360008473ffffffffffffffffffffffffffffffffffffffff1673ffffffffffffffffffffffffffffffffffffffff16815260200190815260200160002082604051611dc691906139e7565b908152602001604051809103902054905092915050565b6008818051602081018201805184825260208301602085012081835280955050505050506000915054906101000a900460ff1681565b600360205281600052604060002081805160208101820180518482526020830160208501208183528095505050505050600091509150505481565b600080611e5a84610d57565b90506000611e6782612228565b90506000611e75828661225e565b9050856000015173ffffffffffffffffffffffffffffffffffffffff168173ffffffffffffffffffffffffffffffffffffffff1614935050505092915050565b8015611f5c5760088460600151604051611ecf91906139e7565b908152602001604051809103902060009054906101000a900460ff1661222257836040015160056000866000015173ffffffffffffffffffffffffffffffffffffffff1673ffffffffffffffffffffffffffffffffffffffff1681526020019081526020016000205410612222578360400151831161222257611f528483611e4e565b15612222576120e7565b60088460600151604051611f7091906139e7565b908152602001604051809103902060009054906101000a900460ff1615611fcc576040517f08c379a0000000000000000000000000000000000000000000000000000000008152600401611fc390613d89565b60405180910390fd5b836040015160056000866000015173ffffffffffffffffffffffffffffffffffffffff1673ffffffffffffffffffffffffffffffffffffffff168152602001908152602001600020541015612056576040517f08c379a000000000000000000000000000000000000000000000000000000000815260040161204d90613df5565b60405180910390fd5b836040015183111561209d576040517f08c379a000000000000000000000000000000000000000000000000000000000815260040161209490613e87565b60405180910390fd5b6120a78483611e4e565b6120e6576040517f08c379a00000000000000000000000000000000000000000000000000000000081526004016120dd90613ef3565b60405180910390fd5b5b600160009054906101000a900473ffffffffffffffffffffffffffffffffffffffff1673ffffffffffffffffffffffffffffffffffffffff1663a9059cbb8560200151856040518363ffffffff1660e01b81526004016121489291906136c7565b6020604051808303816000875af1158015612167573d6000803e3d6000fd5b505050506040513d601f19601f8201168201806040525081019061218b919061371c565b508260056000866000015173ffffffffffffffffffffffffffffffffffffffff1673ffffffffffffffffffffffffffffffffffffffff16815260200190815260200160002060008282546121df9190613bdc565b925050819055506001600885606001516040516121fc91906139e7565b908152602001604051809103902060006101000a81548160ff0219169083151502179055505b50505050565b60007f19457468657265756d205369676e6564204d6573736167653a0a33320000000060005281601c52603c6000209050919050565b60008060008061226e868661228a565b92509250925061227e82826122e6565b82935050505092915050565b600080600060418451036122cf5760008060006020870151925060408701519150606087015160001a90506122c18882858561244a565b9550955095505050506122df565b60006002855160001b9250925092505b9250925092565b600060038111156122fa576122f9613f13565b5b82600381111561230d5761230c613f13565b5b0315612446576001600381111561232757612326613f13565b5b82600381111561233a57612339613f13565b5b03612371576040517ff645eedf00000000000000000000000000000000000000000000000000000000815260040160405180910390fd5b6002600381111561238557612384613f13565b5b82600381111561239857612397613f13565b5b036123dd578060001c6040517ffce698f70000000000000000000000000000000000000000000000000000000081526004016123d49190612d1a565b60405180910390fd5b6003808111156123f0576123ef613f13565b5b82600381111561240357612402613f13565b5b0361244557806040517fd78bce0c00000000000000000000000000000000000000000000000000000000815260040161243c9190613004565b60405180910390fd5b5b5050565b60008060007f7fffffffffffffffffffffffffffffff5d576e7357a4501ddfe92f46681b20a08460001c111561248a576000600385925092509250612534565b6000600188888888604051600081526020016040526040516124af9493929190613f5e565b6020604051602081039080840390855afa1580156124d1573d6000803e3d6000fd5b505050602060405103519050600073ffffffffffffffffffffffffffffffffffffffff168173ffffffffffffffffffffffffffffffffffffffff160361252557600060016000801b93509350935050612534565b8060008060001b935093509350505b9450945094915050565b604051806060016040528060608152602001600073ffffffffffffffffffffffffffffffffffffffff168152602001600081525090565b508054612581906133ac565b6000825580601f1061259357506125b2565b601f0160209004906000526020600020908101906125b191906125b5565b5b50565b5b808211156125ce5760008160009055506001016125b6565b5090565b6000604051905090565b600080fd5b600080fd5b600080fd5b6000601f19601f8301169050919050565b7f4e487b7100000000000000000000000000000000000000000000000000000000600052604160045260246000fd5b612634826125eb565b810181811067ffffffffffffffff82111715612653576126526125fc565b5b80604052505050565b60006126666125d2565b9050612672828261262b565b919050565b600080fd5b600073ffffffffffffffffffffffffffffffffffffffff82169050919050565b60006126a78261267c565b9050919050565b6126b78161269c565b81146126c257600080fd5b50565b6000813590506126d4816126ae565b92915050565b6000819050919050565b6126ed816126da565b81146126f857600080fd5b50565b60008135905061270a816126e4565b92915050565b600080fd5b600080fd5b600067ffffffffffffffff821115612735576127346125fc565b5b61273e826125eb565b9050602081019050919050565b82818337600083830152505050565b600061276d6127688461271a565b61265c565b90508281526020810184848401111561278957612788612715565b5b61279484828561274b565b509392505050565b600082601f8301126127b1576127b0612710565b5b81356127c184826020860161275a565b91505092915050565b6000608082840312156127e0576127df6125e6565b5b6127ea608061265c565b905060006127fa848285016126c5565b600083015250602061280e848285016126c5565b6020830152506040612822848285016126fb565b604083015250606082013567ffffffffffffffff81111561284657612845612677565b5b6128528482850161279c565b60608301525092915050565b600067ffffffffffffffff821115612879576128786125fc565b5b612882826125eb565b9050602081019050919050565b60006128a261289d8461285e565b61265c565b9050828152602081018484840111156128be576128bd612715565b5b6128c984828561274b565b509392505050565b600082601f8301126128e6576128e5612710565b5b81356128f684826020860161288f565b91505092915050565b60008060408385031215612916576129156125dc565b5b600083013567ffffffffffffffff811115612934576129336125e1565b5b612940858286016127ca565b925050602083013567ffffffffffffffff811115612961576129606125e1565b5b61296d858286016128d1565b9150509250929050565b60008115159050919050565b61298c81612977565b82525050565b60006020820190506129a76000830184612983565b92915050565b600067ffffffffffffffff8211156129c8576129c76125fc565b5b602082029050602081019050919050565b600080fd5b60006129f16129ec846129ad565b61265c565b90508083825260208201905060208402830185811115612a1457612a136129d9565b5b835b81811015612a5b57803567ffffffffffffffff811115612a3957612a38612710565b5b808601612a4689826127ca565b85526020850194505050602081019050612a16565b5050509392505050565b600082601f830112612a7a57612a79612710565b5b8135612a8a8482602086016129de565b91505092915050565b600067ffffffffffffffff821115612aae57612aad6125fc565b5b602082029050602081019050919050565b6000612ad2612acd84612a93565b61265c565b90508083825260208201905060208402830185811115612af557612af46129d9565b5b835b81811015612b1e5780612b0a88826126fb565b845260208401935050602081019050612af7565b5050509392505050565b600082601f830112612b3d57612b3c612710565b5b8135612b4d848260208601612abf565b91505092915050565b600067ffffffffffffffff821115612b7157612b706125fc565b5b602082029050602081019050919050565b6000612b95612b9084612b56565b61265c565b90508083825260208201905060208402830185811115612bb857612bb76129d9565b5b835b81811015612bff57803567ffffffffffffffff811115612bdd57612bdc612710565b5b808601612bea89826128d1565b85526020850194505050602081019050612bba565b5050509392505050565b600082601f830112612c1e57612c1d612710565b5b8135612c2e848260208601612b82565b91505092915050565b600080600060608486031215612c5057612c4f6125dc565b5b600084013567ffffffffffffffff811115612c6e57612c6d6125e1565b5b612c7a86828701612a65565b935050602084013567ffffffffffffffff811115612c9b57612c9a6125e1565b5b612ca786828701612b28565b925050604084013567ffffffffffffffff811115612cc857612cc76125e1565b5b612cd486828701612c09565b9150509250925092565b600060208284031215612cf457612cf36125dc565b5b6000612d02848285016126fb565b91505092915050565b612d14816126da565b82525050565b6000602082019050612d2f6000830184612d0b565b92915050565b600060208284031215612d4b57612d4a6125dc565b5b6000612d59848285016126c5565b91505092915050565b600080600060608486031215612d7b57612d7a6125dc565b5b600084013567ffffffffffffffff811115612d9957612d986125e1565b5b612da58682870161279c565b9350506020612db6868287016126c5565b9250506040612dc7868287016126fb565b9150509250925092565b600081519050919050565b600082825260208201905092915050565b6000819050602082019050919050565b600081519050919050565b600082825260208201905092915050565b60005b83811015612e37578082015181840152602081019050612e1c565b60008484015250505050565b6000612e4e82612dfd565b612e588185612e08565b9350612e68818560208601612e19565b612e71816125eb565b840191505092915050565b612e858161269c565b82525050565b612e94816126da565b82525050565b60006060830160008301518482036000860152612eb78282612e43565b9150506020830151612ecc6020860182612e7c565b506040830151612edf6040860182612e8b565b508091505092915050565b6000612ef68383612e9a565b905092915050565b6000602082019050919050565b6000612f1682612dd1565b612f208185612ddc565b935083602082028501612f3285612ded565b8060005b85811015612f6e5784840389528151612f4f8582612eea565b9450612f5a83612efe565b925060208a01995050600181019050612f36565b50829750879550505050505092915050565b60006020820190508181036000830152612f9a8184612f0b565b905092915050565b600060208284031215612fb857612fb76125dc565b5b600082013567ffffffffffffffff811115612fd657612fd56125e1565b5b612fe2848285016127ca565b91505092915050565b6000819050919050565b612ffe81612feb565b82525050565b60006020820190506130196000830184612ff5565b92915050565b600080600060608486031215613038576130376125dc565b5b600084013567ffffffffffffffff811115613056576130556125e1565b5b613062868287016127ca565b9350506020613073868287016126fb565b925050604084013567ffffffffffffffff811115613094576130936125e1565b5b6130a0868287016128d1565b9150509250925092565b6000806000606084860312156130c3576130c26125dc565b5b60006130d1868287016126c5565b93505060206130e2868287016126fb565b925050604084013567ffffffffffffffff811115613103576131026125e1565b5b61310f8682870161279c565b9150509250925092565b600060608301600083015184820360008601526131368282612e43565b915050602083015161314b6020860182612e7c565b50604083015161315e6040860182612e8b565b508091505092915050565b600060208201905081810360008301526131838184613119565b905092915050565b600082825260208201905092915050565b60006131a782612dfd565b6131b1818561318b565b93506131c1818560208601612e19565b6131ca816125eb565b840191505092915050565b6131de8161269c565b82525050565b600060608201905081810360008301526131fe818661319c565b905061320d60208301856131d5565b61321a6040830184612d0b565b949350505050565b60008060408385031215613239576132386125dc565b5b6000613247858286016126c5565b925050602083013567ffffffffffffffff811115613268576132676125e1565b5b6132748582860161279c565b9150509250929050565b600060208284031215613294576132936125dc565b5b600082013567ffffffffffffffff8111156132b2576132b16125e1565b5b6132be8482850161279c565b91505092915050565b7f496e76616c6964207369676e6174757265000000000000000000000000000000600082015250565b60006132fd60118361318b565b9150613308826132c7565b602082019050919050565b6000602082019050818103600083015261332c816132f0565b9050919050565b7f4e487b7100000000000000000000000000000000000000000000000000000000600052603260045260246000fd5b600060208201905061337760008301846131d5565b92915050565b7f4e487b7100000000000000000000000000000000000000000000000000000000600052602260045260246000fd5b600060028204905060018216806133c457607f821691505b6020821081036133d7576133d661337d565b5b50919050565b60008190508160005260206000209050919050565b60006020601f8301049050919050565b600082821b905092915050565b60006008830261343f7fffffffffffffffffffffffffffffffffffffffffffffffffffffffffffffffff82613402565b6134498683613402565b95508019841693508086168417925050509392505050565b6000819050919050565b600061348661348161347c846126da565b613461565b6126da565b9050919050565b6000819050919050565b6134a08361346b565b6134b46134ac8261348d565b84845461340f565b825550505050565b600090565b6134c96134bc565b6134d4818484613497565b505050565b5b818110156134f8576134ed6000826134c1565b6001810190506134da565b5050565b601f82111561353d5761350e816133dd565b613517846133f2565b81016020851015613526578190505b61353a613532856133f2565b8301826134d9565b50505b505050565b600082821c905092915050565b600061356060001984600802613542565b1980831691505092915050565b6000613579838361354f565b9150826002028217905092915050565b61359282612dfd565b67ffffffffffffffff8111156135ab576135aa6125fc565b5b6135b582546133ac565b6135c08282856134fc565b600060209050601f8311600181146135f357600084156135e1578287015190505b6135eb858261356d565b865550613653565b601f198416613601866133dd565b60005b8281101561362957848901518255600182019150602085019450602081019050613604565b868310156136465784890151613642601f89168261354f565b8355505b6001600288020188555050505b505050505050565b7f5769746864726177206973206e6f7420617661696c61626c65206e6f77000000600082015250565b6000613691601d8361318b565b915061369c8261365b565b602082019050919050565b600060208201905081810360008301526136c081613684565b9050919050565b60006040820190506136dc60008301856131d5565b6136e96020830184612d0b565b9392505050565b6136f981612977565b811461370457600080fd5b50565b600081519050613716816136f0565b92915050565b600060208284031215613732576137316125dc565b5b600061374084828501613707565b91505092915050565b60008160601b9050919050565b600061376182613749565b9050919050565b600061377382613756565b9050919050565b61378b6137868261269c565b613768565b82525050565b6000819050919050565b6137ac6137a7826126da565b613791565b82525050565b600081905092915050565b60006137c882612dfd565b6137d281856137b2565b93506137e2818560208601612e19565b80840191505092915050565b60006137fa828761377a565b60148201915061380a828661377a565b60148201915061381a828561379b565b60208201915061382a82846137bd565b915081905095945050505050565b7f43757272656e746c792070617573656421000000000000000000000000000000600082015250565b600061386e60118361318b565b915061387982613838565b602082019050919050565b6000602082019050818103600083015261389d81613861565b9050919050565b7f42656c6f77206d696e696d756d207061796d656e742100000000000000000000600082015250565b60006138da60168361318b565b91506138e5826138a4565b602082019050919050565b60006020820190508181036000830152613909816138cd565b9050919050565b600060408201905061392560008301856131d5565b61393260208301846131d5565b9392505050565b600081519050613948816126e4565b92915050565b600060208284031215613964576139636125dc565b5b600061397284828501613939565b91505092915050565b7f4e6f7420656e6f75676820616c6c6f77616e6365210000000000000000000000600082015250565b60006139b160158361318b565b91506139bc8261397b565b602082019050919050565b600060208201905081810360008301526139e0816139a4565b9050919050565b60006139f382846137bd565b915081905092915050565b7f5555494420697320616c72656164792075736564000000000000000000000000600082015250565b6000613a3460148361318b565b9150613a3f826139fe565b602082019050919050565b60006020820190508181036000830152613a6381613a27565b9050919050565b6000606082019050613a7f60008301866131d5565b613a8c60208301856131d5565b613a996040830184612d0b565b949350505050565b7f5769746864726177207265717565737420616c7265616479206d616465640000600082015250565b6000613ad7601e8361318b565b9150613ae282613aa1565b602082019050919050565b60006020820190508181036000830152613b0681613aca565b9050919050565b7f4e487b7100000000000000000000000000000000000000000000000000000000600052601160045260246000fd5b6000613b47826126da565b9150613b52836126da565b9250828201905080821115613b6a57613b69613b0d565b5b92915050565b7f486f7374206e6f7420666f756e64000000000000000000000000000000000000600082015250565b6000613ba6600e8361318b565b9150613bb182613b70565b602082019050919050565b60006020820190508181036000830152613bd581613b99565b9050919050565b6000613be7826126da565b9150613bf2836126da565b9250828203905081811115613c0a57613c09613b0d565b5b92915050565b600081549050613c1f816133ac565b9050919050565b818103613c34575050613d0c565b613c3d82613c10565b67ffffffffffffffff811115613c5657613c556125fc565b5b613c6082546133ac565b613c6b8282856134fc565b6000601f831160018114613c9a5760008415613c88578287015490505b613c92858261356d565b865550613d05565b601f198416613ca8876133dd565b9650613cb3866133dd565b60005b82811015613cdb57848901548255600182019150600185019450602081019050613cb6565b86831015613cf85784890154613cf4601f89168261354f565b8355505b6001600288020188555050505b5050505050505b565b7f4e487b7100000000000000000000000000000000000000000000000000000000600052603160045260246000fd5b7f5061796d656e7420616c72656164792070726f63657373656400000000000000600082015250565b6000613d7360198361318b565b9150613d7e82613d3d565b602082019050919050565b60006020820190508181036000830152613da281613d66565b9050919050565b7f4e6f7420656e6f7567682062616c616e63650000000000000000000000000000600082015250565b6000613ddf60128361318b565b9150613dea82613da9565b602082019050919050565b60006020820190508181036000830152613e0e81613dd2565b9050919050565b7f41637475616c20616d6f756e742063616e206e6f74206265206772656174657260008201527f207468616e206d617820616d6f756e7400000000000000000000000000000000602082015250565b6000613e7160308361318b565b9150613e7c82613e15565b604082019050919050565b60006020820190508181036000830152613ea081613e64565b9050919050565b7f496e76616c6964207061796d656e742072657175657374000000000000000000600082015250565b6000613edd60178361318b565b9150613ee882613ea7565b602082019050919050565b60006020820190508181036000830152613f0c81613ed0565b9050919050565b7f4e487b7100000000000000000000000000000000000000000000000000000000600052602160045260246000fd5b600060ff82169050919050565b613f5881613f42565b82525050565b6000608082019050613f736000830187612ff5565b613f806020830186613f4f565b613f8d6040830185612ff5565b613f9a6060830184612ff5565b9594505050505056fea26469706673582212204705e641d51acf7e307f0a2c3f983f37b35ce85d20c74bc000d6976d998e7e9a64736f6c63430008180033",
  "linkReferences": {},
  "deployedLinkReferences": {}
}